S00B00004361722E7372656303
S11300000C944C000C9469000C9469000C946900E5
S11300100C9469000C9469000C9469000C946900B8
S11300200C9469000C9469000C9469000C94CD0044
S11300300C9469000C9469000C9469000C94690098
S11300400C9469000C9469000C9469000C94690088
S11300500C946900A302A702AB02AF02B302B70279
S1130060BB02BF02C302C7023503450349034D0364
S11300705103550359035D036E0378037C03800326
S1130080840388038C0390033705420547054C0518
S1130090510556055B05600511241FBECFE5D8E068
S11300A0DEBFCDBF10E0A0E6B0E0EEEEFBE002C0A4
S11300B005900D92A237B107D9F720E0A2E7B0E08E
S11300C001C01D92AC37B207E1F70E94F9020C940B
S11300D0F5050C940000CF93DF9300D000D000D03E
S11300E0CDB7DEB760E080E00E9497046FEF82E056
S11300F00E9497046BEF83E00E9497040E946A01B8
S113010087E790E00E947B0587E790E00E94B204B5
S11301106FEF87E790E00E94190586E0E0E6F0E0E3
S1130120DE01119601900D928A95E1F7CE010196B8
S11301300E94FE020E94AD0426960FB6F894DEBF1C
S11301400FBECDBFDF91CF910895CF93DF9360E0D1
S113015080E00E94E60286E690E00E94110280910F
S11301607300909174009695879596958795282F9E
S1130170392F40E050E060E070E080E090E00E94C1
S1130180240280917200803228F080E00E94E8030B
S113019010927200DF91CF9108951F920F920FB6C3
S11301A00F9211242F933F934F935F936F937F93F9
S11301B08F939F93AF93BF93EF93FF9380917200BC
S11301C08F5F8093720087E790E00E9469056FEF6C
S11301D087E790E00E941905FF91EF91BF91AF91DD
S11301E09F918F917F916F915F914F913F912F914B
S11301F00F900FBE0F901F901895CF93C82F40E01B
S113020065E083E00E941904C4FB442740F964E0DC
S113021082E00E941904C5FB442740F965E082E0AE
S11302200E941904C6FB442740F966E082E00E945C
S113023019044C2F441F4427441F67E082E00E94A6
S1130240190441E067E083E00E9419048FEC97E011
S11302500197F1F700C0000040E067E083E00E94EE
S113026019048FEC97E00197F1F700C000004C2FC0
S1130270417064E082E00E941904C1FB442740F904
S113028065E082E00E941904C2FB442740F966E05D
S113029082E00E941904C3FB442740F967E082E02E
S11302A00E94190441E067E083E00E9419048FEC86
S11302B097E00197F1F700C0000040E067E083E0B9
S11302C00E9419048FEC97E00197F1F700C0000039
S11302D0CF9108952FE788E391E02150804090402A
S11302E0E1F700C0000082E00E94FD008FEC97E07F
S11302F00197F1F700C0000088E20E94FD008FEC36
S113030097E00197F1F700C000008EE00E94FD0025
S11303108FEC97E00197F1F700C0000081E00E94A4
S1130320FD008FE99FE00197F1F700C0000086E02F
S11303300E94FD008FEC97E00197F1F700C00000E8
S11303400895CF93C82F41E065E083E00E9419042B
S1130350C4FB442740F964E082E00E941904C5FB11
S1130360442740F965E082E00E941904C6FB442753
S113037040F966E082E00E9419044C2F441F442790
S1130380441F67E082E00E94190441E067E083E0D3
S11303900E9419048FEC97E00197F1F700C0000068
S11303A040E067E083E00E9419048FEC97E0019736
S11303B0F1F700C000004C2F417064E082E00E941D
S11303C01904C1FB442740F965E082E00E94190446
S11303D0C2FB442740F966E082E00E941904C3FB93
S11303E0442740F967E082E00E94190441E067E095
S11303F083E00E9419048FEC97E00197F1F700C0A5
S1130400000040E067E083E00E9419048FEC97E06D
S11304100197F1F700C00000CF9108950E94A10157
S113042008950F931F93CF938C01C0E003C00E94E3
S11304300E02CF5FF801EC0FF11D80818111F7CF1F
S1130440CF911F910F9108952F923F924F925F92F7
S11304506F927F928F929F92AF92BF92CF92DF92D0
S1130460EF92FF920F931F93CF93DF93CDB7DEB735
S113047028970FB6F894DEBF0FBECDBF2E833F83FF
S11304804887852E762E672E382E292EA0E00E94CE
S1130490E90519F480E30E940E02912C33C0492C23
S11304A0092C000C55080F2EFAE0AF2EF02DB12CBC
S11304B0C12CD12CE12CF12C00E010E02E813F81E5
S11304C04885582D672D762D832D922D0E948A05FF
S11304D0E1E0F0E0EC0FFD1FE40DF51D20832E811B
S11304E03F814885582D672D762D832D922D0E94AE
S11304F08C052E833F834887852E762E672E382ED3
S1130500292E93942E813F814885582D672D762D71
S1130510832D922DA0E00E94E90509F69A943BC030
S1130520E1E0F0E0EC0FFD1FE90DF11D97FCFA95F9
S1130530E0818E2F90E08A30910560F5FC01E65D44
S1130540FF4F0C94840580E30E940E0223C081E3D4
S11305500E940E021FC082E30E940E021BC083E3AE
S11305600E940E0217C084E30E940E0213C085E3AA
S11305700E940E020FC086E30E940E020BC087E3A6
S11305800E940E0207C088E30E940E0203C089E3A2
S11305900E940E029A9499201CF628960FB6F8949D
S11305A0DEBF0FBECDBFDF91CF911F910F91FF90A2
S11305B0EF90DF90CF90BF90AF909F908F907F90FF
S11305C06F905F904F903F902F900895882319F07B
S11305D0813041F00895603158F480E8860F0E941C
S11305E0FD000895603120F480EC860F0E94FD0028
S11305F008950E946B000E94A500FDCFDC018C9140
S1130600813079F018F0833041F0D6C087B18F770C
S113061087B987B18F7B87B907C087B1806C87B9E9
S113062003C087B1806487B911968C911197882390
S113063049F0813009F0C2C08093760087B18062AE
S113064087B905C01092760087B18F7D87B912965D
S1130650EC9112974E2F50E04830510508F0B0C08D
S1130660FA01EC5CFF4F0C94840587B18E7F87B947
S113067087B18D7F87B987B18B7F87B987B1877F32
S113068087B987B18F7E87B91BC087B1816087B96D
S113069017C087B1826087B913C087B1816087B9F9
S11306A00FC087B1846087B90BC087B1856087B9F3
S11306B007C087B1866087B903C087B1876087B9EF
S11306C01396EC9113974E2F50E04830510508F0E3
S11306D079C0FA01E45CFF4F0C94840586B18B7FEA
S11306E086B986B18D7F86B986B18E7F86B91BC0E7
S11306F086B1816086B917C086B1826086B913C09D
S113070086B1836086B90FC086B1856086B90BC097
S113071086B1856086B907C086B1866086B903C094
S113072086B1876086B914968C911497813069F0EC
S113073018F0823089F048C01092750086B1886044
S113074086B986B1806486B932C081E08093750031
S113075086B1806486B92BC086B1806286B915964D
S11307608C918330C9F028F4882341F0823081F0E1
S11307702DC08430A9F08730B9F028C080B78F77B6
S113078080BF86B18F7B86B986B18F7D86B90FC055
S113079080B7806480BF0BC080B7806680BF07C00D
S11307A080B7806880BF03C080B7806E80BF86B189
S11307B0806886B981E0089580E0089580E0089516
S11307C080E0089580E0089580E0089580E0089531
S11307D097B18F70982B97B980917500813029F467
S11307E086B1806486B9349BFECF809176008130D7
S11307F081F484B195B10024880F991F001C880FDF
S1130800991F001C892F902D90937400809373007E
S113081008C0811106C084B195B19093740080938F
S1130820730080917500811103C086B1806486B91C
S1130830089541113CC0813099F028F08230E9F0EC
S1130840833041F16EC02BB381E090E002C0880F89
S1130850991F6A95E2F7809582238BBB81E0089506
S113086028B381E090E002C0880F991F6A95E2F7EF
S11308708095822388BB81E0089525B381E090E0D0
S113088002C0880F991F6A95E2F78095822385BB81
S113089081E0089522B381E090E002C0880F991F9F
S11308A06A95E2F78095822382BB81E00895413006
S11308B0D1F5813091F028F08230D9F0833029F1DC
S11308C034C02BB381E090E002C0880F991F6A9571
S11308D0E2F7822B8BBB81E0089528B381E090E09E
S11308E002C0880F991F6A95E2F7822B88BB81E0CA
S11308F0089525B381E090E002C0880F991F6A959E
S1130900E2F7822B85BB81E0089522B381E090E079
S113091002C0880F991F6A95E2F7822B82BB81E09F
S1130920089580E0089581E0089580E0089581307D
S113093049F028F0823049F0833051F00CC06ABB92
S113094081E0089567BB81E0089564BB81E0089568
S113095061BB81E0089580E008958FB780688FBF00
S113096081E00895FC0191819130A9F028F0923042
S1130970F1F09330C1F153C083B78F7B83BF83B74A
S1130980877F83BF8381813009F04BC089B7816041
S113099089BF81E0089583B7886083BF83818130F4
S11309A009F041C089B7826089BF81E0089583B7A7
S11309B0886483BF8481811108C083B78F7E83BF1D
S11309C083B78F7D83BF81E00895813029F483B795
S11309D0806283BF81E00895813039F583B78063F5
S11309E083BF81E0089583B7806483BF84818111CC
S11309F008C083B78F7E83BF83B78F7D83BF81E0B9
S1130A000895813029F483B7806283BF81E008951B
S1130A10813069F483B7806383BF81E0089581E006
S1130A20089581E0089581E0089580E0089580E0CC
S1130A300895FC019181911103C0609562BF0CC0BF
S1130A40913019F412BE6CBF07C0933011F46CBF1F
S1130A5003C09230D1F56CBFE2818E2F90E08830D4
S1130A609105A8F5FC01EC5BFF4F0C94840583B75A
S1130A708E7F83BF83B78D7F83BF83B78B7F83BF15
S1130A8081E0089583B7816083BF81E0089583B7CF
S1130A90826083BF81E0089583B7836083BF81E070
S1130AA0089583B7846083BF81E0089583B7856028
S1130AB083BF81E0089583B7866083BF81E0089592
S1130AC083B7876083BF81E0089580E0089581E063
S1130AD00895FC018181811105C088B7816088BFB8
S1130AE081E00895813029F488B7826088BF81E06D
S1130AF0089580E00895FC011082118285E08283CC
S1130B0081E0838314820895EE0FFF1F0590F49112
S1130B10E02D0994689401C0E8948F929F92CF933A
S1130B20DF930E949805DF91CF919F908F90089555
S1130B3088249924F401E401B0E49F93AA279A1528
S1130B408B049C04ED05FE05CF05D007A10798F49E
S1130B50AD2FDC2FCF2FFE2FE92D982C892E982F27
S1130B60872F762F652F542F432F322F2227B850EB
S1130B7031F7BF9127C01B2EBF91BB27220F331F14
S1130B80441F551F661F771F881F991F881C991CB7
S1130B90EE1FFF1FCC1FDD1FAA1FBB1F8A149B045F
S1130BA0EC05FD05CE05DF05A007B10748F08A185E
S1130BB09B08EC09FD09CE09DF09A00BB10B2160EC
S1130BC01A94E1F62EF49401AF01BE01CD01000C9C
S1130BD008950024A7FD00942A1730054005500508
S1110BE060057005800590050895F894FFCF18
S1130BEE03010006020454656D70203A2020200093
S1050BFE0000F1
S9030000FC
