S00B00004361722E7372656303
S11300000C9432000C9444000C94AB000C94440007
S11300100C9444000C9422010C9444000C9444006D
S11300200C9444000C9444000C9444000C9444003C
S11300300C9444000C9444000C9444000C9444002C
S11300400C9444000C9444000C9444000C9444001C
S11300500C944400B003BB03C003C503CA03CF031D
S1130060D403D90311241FBECFE5D8E0DEBFCDBF32
S113007020E0A0E6B0E001C01D92AF36B207E1F780
S11300800E9470010C9434040C9400006FEF80E023
S11300900E94AB020E94500008950E9467000895D8
S11300A041E062E083E00E94F30140E063E083E02A
S11300B00E94F30163E083E00E94C10286E690E0BF
S11300C00E94F70382E00E940F0381E0089580916B
S11300D06500811110C041E062E083E00E94750177
S11300E088E28A95F1F740E062E083E00E947501BE
S11300F081E08093650081E0089560357105810594
S1130100910528F060E080E00E94710222C0623311
S113011071058105910528F061E080E00E9471027B
S113012018C0643171058105910528F062E080E012
S11301300E9471020EC0653071058105910528F099
S113014063E080E00E94710204C064E080E00E94E9
S1130150710281E008951F920F920FB60F9211243D
S11301602F933F934F935F936F937F938F939F93BB
S1130170AF93BF93EF93FF9380916500813009F0B3
S113018050C08091640081110EC00E94F40381E08C
S113019080936400109260001092610010926200DB
S11301A0109263003EC08091600090916100A09124
S11301B06200B0916300BA2FA92F982F882722B725
S11301C0BC01CD01620F711D811D911D22ED31E035
S11301D040E050E00E940C0420936B0030936C00CC
S11301E040936D0050936E002FEF89EF90E0215003
S11301F080409040E1F700C0000060916B00709176
S11302006C0080916D0090916E000E947D001092B0
S113021060001092610010926200109263001092CC
S11302206400FF91EF91BF91AF919F918F917F9166
S11302306F915F914F913F912F910F900FBE0F904F
S11302401F9018951F920F920FB60F9211242F939F
S11302503F934F935F936F937F938F939F93AF934A
S1130260BF93EF93FF938091600090916100A09100
S11302706200B09163000196A11DB11D80936000DE
S113028090936100A0936200B09363008B3D924011
S1130290A105B10570F00E94F4031092650010925C
S11302A0640010926000109261001092620010923B
S11302B0630086E690E00E94E2030E94F403FF914B
S11302C0EF91BF91AF919F918F917F916F915F91CA
S11302D04F913F912F910F900FBE0F901F90189543
S11302E00E9446000E944D00FDCF41113CC0813068
S11302F099F028F08230E9F0833041F16EC02BB3DD
S113030081E090E002C0880F991F6A95E2F780951A
S113031082238BBB81E0089528B381E090E002C082
S1130320880F991F6A95E2F78095822388BB81E044
S1130330089525B381E090E002C0880F991F6A9563
S1130340E2F78095822385BB81E0089522B381E0A2
S113035090E002C0880F991F6A95E2F78095822386
S113036082BB81E008954130D1F5813091F028F0CD
S11303708230D9F0833029F134C02BB381E090E08E
S113038002C0880F991F6A95E2F7822B8BBB81E02C
S1130390089528B381E090E002C0880F991F6A9500
S11303A0E2F7822B88BB81E0089525B381E090E0D9
S11303B002C0880F991F6A95E2F7822B85BB81E002
S11303C0089522B381E090E002C0880F991F6A95D6
S11303D0E2F7822B82BB81E0089580E0089581E0FA
S11303E0089580E0089541113CC0813099F028F0CF
S11303F08230E9F0833041F16EC02AB381E090E0AD
S113040002C0880F991F6A95E2F7809582238ABB00
S113041081E0089527B381E090E002C0880F991F1E
S11304206A95E2F78095822387BB81E0089524B31F
S113043081E090E002C0880F991F6A95E2F78095E9
S1130440822384BB81E0089521B381E090E002C05F
S1130450880F991F6A95E2F78095822381BB81E01A
S113046008954130D1F5813091F028F08230D9F0EF
S1130470833029F134C02AB381E090E002C0880FB0
S1130480991F6A95E2F7822B8ABB81E0089527B30E
S113049081E090E002C0880F991F6A95E2F7822BF1
S11304A087BB81E0089524B381E090E002C0880F07
S11304B0991F6A95E2F7822B84BB81E0089521B3EA
S11304C081E090E002C0880F991F6A95E2F7822BC1
S11304D081BB81E0089580E0089581E0089580E083
S11304E00895813091F028F08230D9F0833029F1D9
S11304F030C02BB381E090E002C0880F991F6A9549
S1130500E2F782278BBB81E0089528B381E090E075
S113051002C0880F991F6A95E2F7822788BB81E0A1
S1130520089525B381E090E002C0880F991F6A9571
S1130530E2F7822785BB81E0089522B381E090E051
S113054002C0880F991F6A95E2F7822782BB81E077
S1130550089580E00895813049F028F0823049F010
S1130560833051F00CC06ABB81E0089567BB81E021
S1130570089564BB81E0089561BB81E0089580E043
S113058008958130B9F028F0823029F18330A1F147
S113059044C02AB381E090E002C0880F991F6A9595
S11305A0E2F7982F909592239ABB9BB3892B8BBB30
S11305B081E0089527B381E090E002C0880F991F7D
S11305C06A95E2F7982F9095922397BB98B3892B5D
S11305D088BB81E0089524B381E090E002C0880FD5
S11305E0991F6A95E2F7982F9095922394BB95B33F
S11305F0892B85BB81E0089521B381E090E002C09E
S1130600880F991F6A95E2F7982F9095922391BBD2
S113061092B3892B82BB81E0089580E008959FB74F
S113062090689FBF9BB790689BBF811108C085B736
S11306308B7F85BF85B7886085BF81E00895813051
S113064041F485B7846085BF85B7886085BF81E044
S1130650089580E00895FC0191819130A9F028F07B
S11306609230F1F09330C1F153C085B58F7B85BDD5
S113067085B5877F85BD8381813009F04BC089B7FB
S1130680806489BF81E0089585B5886085BD8381D4
S1130690813009F041C089B7806889BF81E008953D
S11306A085B5886485BD8481811108C085B58F7E38
S11306B085BD85B58F7D85BD81E00895813029F4A0
S11306C085B5806285BD81E00895813039F585B5B1
S11306D0806385BD81E0089585B5806485BD84818E
S11306E0811108C085B58F7E85BD85B58F7D85BD9B
S11306F081E00895813029F485B5806285BD81E06B
S11307000895813069F485B5806385BD81E00895DD
S113071080E0089581E0089581E0089580E00895DF
S113072080E00895FC019181911103C0609564BD3E
S11307300CC0913019F414BC63BD07C0933011F49C
S113074063BD03C09230D1F563BDE2818E2F90E08A
S113075088309105A8F5FC01E65DFF4F0C942E044A
S113076085B58E7F85BD85B58D7F85BD85B58B7F30
S113077085BD81E0089585B5816085BD81E00895DA
S113078085B5826085BD81E0089585B5836085BDAA
S113079081E0089585B5846085BD81E0089585B5BF
S11307A0856085BD81E0089585B5866085BD81E05D
S11307B0089585B5876085BD81E0089580E008953A
S11307C080E00895FC018181811105C088B78064AF
S11307D088BF81E00895813029F488B7806888BF94
S11307E081E0089580E0089514BC81E00895CF93DA
S11307F0DF93EC0181E0888319828A838B830E94D2
S1130800F403CE010E942B036FEFCE010E949203EA
S113081081E0DF91CF910895A1E21A2EAA1BBB1BA0
S1130820FD010DC0AA1FBB1FEE1FFF1FA217B307B8
S1130830E407F50720F0A21BB30BE40BF50B661FCE
S1130840771F881F991F1A9469F760957095809592
S113085090959B01AC01BD01CF010895EE0FFF1FE0
S10F08600590F491E02D0994F894FFCF6A
S9030000FC
