S00B00004361722E7372656303
S11300000C9432000C9444000C9481000C94440031
S11300100C9444000C9405010C9444000C9444008A
S11300200C9444000C9444000C9444000C9444003C
S11300300C9444000C9444000C9444000C9444002C
S11300400C9444000C9444000C9444000C9444001C
S11300500C94440041034C03510356035B036003B7
S113006065036A0311241FBECFE5D8E0DEBFCDBF10
S113007020E0A0E6B0E001C01D92A937B207E1F785
S11300800E9451010C9424040C9400000E944C0022
S113009008950E94650008950E949D0341E067E071
S11300A083E00E94D40140E063E083E00E94D40135
S11300B063E083E00E94520280E790E00E9488039C
S11300C082E00E94A00281E0089580916F00811176
S11300D010C041E067E083E00E94560188E28A95FF
S11300E0F1F740E067E083E00E94560181E08093ED
S11300F06F0081E0089580E690E00E94B40381E0FF
S113010008951F920F920FB60F9211242F933F93CD
S11301104F935F936F937F938F939F93AF93BF930B
S1130120EF93FF9380916F00813009F05DC080915F
S11301306E0081110EC00E94850381E080936E00E1
S113014010926A0010926B0010926C0010926D0075
S11301504BC080916A0090916B00A0916C00B091AB
S11301606D00BA2FA92F982F882722B7BC01CD0183
S1130170620F711D811D911D22ED31E040E050E0C0
S11301800E94C703DA01C9012093750030937600F9
S113019040937700509378004AE060E670E00E9454
S11301A0EF03E0E6F0E001900020E9F7319780E208
S11301B093E4918380838DE690E0938382830E940D
S11301C07B002FEF89EF90E0215080409040E1F7D1
S11301D000C0000010926A0010926B0010926C0034
S11301E010926D0010926E00FF91EF91BF91AF914C
S11301F09F918F917F916F915F914F913F912F913B
S11302000F900FBE0F901F9018951F920F920FB66C
S11302100F9211242F933F934F935F936F937F9388
S11302208F939F93AF93BF93EF93FF9380916A0053
S113023090916B00A0916C00B0916D000196A11D8E
S1130240B11D80936A0090936B00A0936C00B093EF
S11302506D008B3D9240A105B10560F00E948503BD
S113026010926F0010926A0010926B0010926C0052
S113027010926D0080E790E00E9473030E94850352
S1130280FF91EF91BF91AF919F918F917F916F916A
S11302905F914F913F912F910F900FBE0F901F9040
S11302A018950E9446000E944900FDCF41113CC0B0
S11302B0813099F028F08230E9F0833041F16EC04A
S11302C02BB381E090E002C0880F991F6A95E2F792
S11302D0809582238BBB81E0089528B381E090E070
S11302E002C0880F991F6A95E2F78095822388BB24
S11302F081E0089525B381E090E002C0880F991F42
S11303006A95E2F78095822385BB81E0089522B344
S113031081E090E002C0880F991F6A95E2F780950A
S1130320822382BB81E008954130D1F5813091F080
S113033028F08230D9F0833029F134C02BB381E026
S113034090E002C0880F991F6A95E2F7822B8BBB5D
S113035081E0089528B381E090E002C0880F991FDE
S11303606A95E2F7822B88BB81E0089525B381E08A
S113037090E002C0880F991F6A95E2F7822B85BB33
S113038081E0089522B381E090E002C0880F991FB4
S11303906A95E2F7822B82BB81E0089580E008959C
S11303A081E0089580E0089541113CC0813099F0C6
S11303B028F08230E9F0833041F16EC02AB381E045
S11303C090E002C0880F991F6A95E2F78095822316
S11303D08ABB81E0089527B381E090E002C0880FD2
S11303E0991F6A95E2F78095822387BB81E008957F
S11303F024B381E090E002C0880F991F6A95E2F768
S11304008095822384BB81E0089521B381E090E04C
S113041002C0880F991F6A95E2F78095822381BBF9
S113042081E008954130D1F5813091F028F0823097
S1130430D9F0833029F134C02AB381E090E002C0BE
S1130440880F991F6A95E2F7822B8ABB81E0089591
S113045027B381E090E002C0880F991F6A95E2F704
S1130460822B87BB81E0089524B381E090E002C031
S1130470880F991F6A95E2F7822B84BB81E0089567
S113048021B381E090E002C0880F991F6A95E2F7DA
S1130490822B81BB81E0089580E0089581E0089576
S11304A080E008958130B9F028F0823029F183305A
S11304B0A1F144C02AB381E090E002C0880F991FE3
S11304C06A95E2F7982F909592239ABB9BB3892B58
S11304D08BBB81E0089527B381E090E002C0880FD0
S11304E0991F6A95E2F7982F9095922397BB98B33A
S11304F0892B88BB81E0089524B381E090E002C099
S1130500880F991F6A95E2F7982F9095922394BBD0
S113051095B3892B85BB81E0089521B381E090E0F8
S113052002C0880F991F6A95E2F7982F909592233D
S113053091BB92B3892B82BB81E0089580E008953A
S11305409FB790689FBF9BB790689BBF811108C0FD
S113055085B78B7F85BF85B7886085BF81E00895A7
S1130560813041F485B7846085BF85B7886085BFD5
S113057081E0089580E00895FC0191819130A9F013
S113058028F09230F1F09330C1F153C085B58F7BE0
S113059085BD85B5877F85BD8381813009F04BC0DA
S11305A089B7806489BF81E0089585B5886085BD79
S11305B08381813009F041C089B7806889BF81E0B7
S11305C0089585B5886485BD8481811108C085B589
S11305D08F7E85BD85B58F7D85BD81E00895813091
S11305E029F485B5806285BD81E00895813039F5AF
S11305F085B5806385BD81E0089585B5806485BD3A
S11306008481811108C085B58F7E85BD85B58F7DB8
S113061085BD81E00895813029F485B5806285BD6A
S113062081E00895813069F485B5806385BD81E0FA
S1130630089580E0089581E0089581E0089580E0C0
S1130640089580E00895FC019181911103C06095A3
S113065064BD0CC0913019F414BC63BD07C0933061
S113066011F463BD03C09230D1F563BDE2818E2FD6
S113067090E088309105A8F5FC01E65DFF4F0C94ED
S1130680E90385B58E7F85BD85B58D7F85BD85B52F
S11306908B7F85BD81E0089585B5816085BD81E04E
S11306A0089585B5826085BD81E0089585B5836030
S11306B085BD81E0089585B5846085BD81E0089598
S11306C085B5856085BD81E0089585B5866085BD65
S11306D081E0089585B5876085BD81E0089580E057
S11306E0089580E00895FC018181811105C088B7D7
S11306F0806488BF81E00895813029F488B78068D8
S113070088BF81E0089580E0089514BC81E00895D5
S1130710CF93DF93EC0181E0888319828A838B83F2
S11307200E948503CE010E94BC026FEFCE010E949D
S1130730230381E0DF91CF9108958AB188608AB95B
S11307408AB180618AB980B5806880BD80B58260D5
S113075080BD80B5846080BD83E389B910BC0895F1
S11307605D9BFECF8CB908950F931F93CF938C019B
S1130770C0E003C00E94B003CF5FF801EC0FF11D8D
S113078080818111F7CFCF911F910F910895A1E23C
S11307901A2EAA1BBB1BFD010DC0AA1FBB1FEE1FF7
S11307A0FF1FA217B307E407F50720F0A21BB30B42
S11307B0E40BF50B661F771F881F991F1A9469F7BE
S11307C060957095809590959B01AC01BD01CF011A
S11307D00895EE0FFF1F0590F491E02D0994BB27B7
S11307E04A3031F4992322F4BDE2909581959F4FCC
S11307F00C94FB03BB27FB015527AA27880F991FDD
S1130800AA1FA41710F0A41B83955051B9F7A05D3B
S1130810AA3308F0A95DA193009779F7B111B193B8
S11308201192CB010C941404DC01FC01672F71912B
S11308307723E1F7329704C07C916D9370836291C2
S10F0840AE17BF07C8F30895F894FFCF6B
S9030000FC
