:100000000C9432000C9444000C9444000C94440072
:100010000C9444000C9444000C9444000C94440050
:100020000C9444000C9444000C9444000C9448003C
:100030000C9444000C9444000C9444000C94440030
:100040000C9444000C9444000C9444000C94440020
:100050000C9444009B00A600AB00B000B500BA00B1
:10006000BF00C40011241FBECFE5D8E0DEBFCDBF66
:1000700020E0A0E6B0E001C01D92A636B207E1F78D
:100080000E9478000C94E5000C94000008950895F7
:100090001F920F920FB60F9211242F933F934F93FD
:1000A0005F936F937F938F939F93AF93BF93EF93E0
:1000B000FF93809160008F5F8093600081E690E005
:1000C0000E94CD006FEF81E690E00E947D00FF91DD
:1000D000EF91BF91AF919F918F917F916F915F91C0
:1000E0004F913F912F910F900FBE0F901F90189539
:1000F0000E9446000E944700FDCFFC0191819111B2
:1001000003C0609562BF0CC0913019F412BE6CBF81
:1001100007C0933011F46CBF03C09230D1F56CBFAF
:10012000E2818E2F90E088309105A8F5FC01E65D14
:10013000FF4F0C94DF0083B78E7F83BF83B78D7F23
:1001400083BF83B78B7F83BF81E0089583B78160CE
:1001500083BF81E0089583B7826083BF81E0089503
:1001600083B7836083BF81E0089583B7846083BFD2
:1001700081E0089583B7856083BF81E0089583B7E8
:10018000866083BF81E0089583B7876083BF81E085
:10019000089580E0089581E00895FC018181811136
:1001A00005C088B7816088BF81E00895813029F457
:1001B00088B7826088BF81E0089580E00895EE0FDF
:0E01C000FF1F0590F491E02D0994F894FFCFF5
:00000001FF
