S00D000052616461722E737265632D
S11300000C9432000C944F000C944F000C944F004D
S11300100C944F000C944F000C944F000C945C0013
S11300200C944F000C944F000C944F000C944F0010
S11300300C944F000C94AE000C944F000C944F00A1
S11300400C944F000C944F000C944F000C944F00F0
S11300500C944F00E303EE03F303F803FD030204DF
S113006007040C0411241FBECFE5D8E0DEBFCDBFCA
S113007010E0A0E6B0E0E2ECF8E002C005900D92DA
S1130080AC36B107D9F720E0ACE6B0E001C01D9270
S1130090AC37B207E1F70E9434020C945F040C946D
S11300A000000E9443040E94440187E790E00E94FC
S11300B02B047894089508951F920F920FB60F920F
S11300C011242F933F934F935F936F937F938F9359
S11300D09F93AF93BF93CF93EF93FF9381E00E94DD
S11300E0D70060E080E00E94210280E690E00E9458
S11300F00E0260E081E00E942102C0E00DC0EC2FFE
S1130100F0E0E359FF4F80818D3619F40E940B0211
S113011005C00E940B02CF5FC93088F30E942704F8
S113012087E790E00E9415044EE85BE560E070E02C
S113013087E790E00E94AF03FF91EF91CF91BF91C9
S1130140AF919F918F917F916F915F914F913F916B
S11301502F910F900FBE0F901F9018951F920F9222
S11301600FB60F9211248F93AF93BF93EF93FF9326
S1130170E0916C00AE2FB0E08CB1A359BF4F8C93CB
S1130180EF5FE0936C00EA3030F4F0E0E459FF4FA5
S113019080818D3611F410926C00FF91EF91BF9124
S11301A0AF918F910F900FBE0F901F901895CF9322
S11301B0C82F40E065E081E00E943902C4FB442777
S11301C040F964E080E00E943902C5FB442740F90D
S11301D065E080E00E943902C6FB442740F966E0EE
S11301E080E00E9439024C2F441F4427441F67E0DB
S11301F080E00E94390241E067E081E00E94390218
S11302008FEC97E00197F1F700C0000040E067E051
S113021081E00E9439028FEC97E00197F1F700C06A
S113022000004C2F417064E080E00E943902C1FB61
S1130230442740F965E080E00E943902C2FB44276C
S113024040F966E080E00E943902C3FB442740F98C
S113025067E080E00E94390241E067E081E00E94AB
S113026039028FEC97E00197F1F700C0000040E0FD
S113027067E081E00E9439028FEC97E00197F1F783
S113028000C00000CF91089541E064E080E00E9446
S1130290B70241E065E080E00E94B70241E066E019
S11302A080E00E94B70241E067E080E00E94B7026C
S11302B041E065E081E00E94B70241E066E081E050
S11302C00E94B70241E067E081E00E94B7022FE795
S11302D088E391E0215080409040E1F700C00000A5
S11302E082E00E94D7008FEC97E00197F1F700C0FD
S11302F0000088E20E94D7008FEC97E00197F1F7A5
S113030000C000008EE00E94D7008FEC97E00197B8
S1130310F1F700C0000081E00E94D7008FE99FE060
S11303200197F1F700C0000086E00E94D7008FEC2F
S113033097E00197F1F700C000000895CF93C82F0C
S113034041E065E081E00E943902C4FB442740F9A2
S113035064E080E00E943902C5FB442740F965E06F
S113036080E00E943902C6FB442740F966E080E041
S11303700E9439024C2F441F4427441F67E080E049
S11303800E94390241E067E081E00E9439028FEC6B
S113039097E00197F1F700C0000040E067E081E0DA
S11303A00E9439028FEC97E00197F1F700C000003A
S11303B04C2F417064E080E00E943902C1FB442765
S11303C040F965E080E00E943902C2FB442740F90D
S11303D066E080E00E943902C3FB442740F967E0ED
S11303E080E00E94390241E067E081E00E94390226
S11303F08FEC97E00197F1F700C0000040E067E060
S113040081E00E9439028FEC97E00197F1F700C078
S11304100000CF9108950E949E0108950F931F93A9
S1130420CF938C01C0E003C00E940B02CF5FF801A0
S1130430EC0FF11D80818111F7CFCF911F910F91A6
S11304400895882319F0813041F00895603158F4FB
S113045080E8860F0E94D7000895603120F480EC74
S1130460860F0E94D70008950E9451000E945B00ED
S1130470FDCF41113CC0813099F028F08230E9F081
S1130480833041F16EC02BB381E090E002C0880F4D
S1130490991F6A95E2F7809582238BBB81E00895CA
S11304A028B381E090E002C0880F991F6A95E2F7B3
S11304B08095822388BB81E0089525B381E090E094
S11304C002C0880F991F6A95E2F78095822385BB45
S11304D081E0089522B381E090E002C0880F991F63
S11304E06A95E2F78095822382BB81E008954130CA
S11304F0D1F5813091F028F08230D9F0833029F1A0
S113050034C02BB381E090E002C0880F991F6A9534
S1130510E2F7822B8BBB81E0089528B381E090E061
S113052002C0880F991F6A95E2F7822B88BB81E08D
S1130530089525B381E090E002C0880F991F6A9561
S1130540E2F7822B85BB81E0089522B381E090E03D
S113055002C0880F991F6A95E2F7822B82BB81E063
S1130560089580E0089581E0089580E008954111A0
S11305703CC0813099F028F08230E9F0833041F1B9
S11305806EC02AB381E090E002C0880F991F6A957B
S1130590E2F7809582238ABB81E0089527B381E046
S11305A090E002C0880F991F6A95E2F78095822334
S11305B087BB81E0089524B381E090E002C0880FF6
S11305C0991F6A95E2F78095822384BB81E00895A0
S11305D021B381E090E002C0880F991F6A95E2F789
S11305E08095822381BB81E008954130D1F581302B
S11305F091F028F08230D9F0833029F134C02AB345
S113060081E090E002C0880F991F6A95E2F7822B7F
S11306108ABB81E0089527B381E090E002C0880F8F
S1130620991F6A95E2F7822B87BB81E0089524B372
S113063081E090E002C0880F991F6A95E2F7822B4F
S113064084BB81E0089521B381E090E002C0880F6B
S1130650991F6A95E2F7822B81BB81E0089580E0BF
S1130660089581E0089580E00895FC01918191301E
S1130670E1F030F0923029F1933009F444C065C0C0
S11306808FB58E7F8FBD8FB58D7F8FBD8EB5877FE4
S11306908EBD8EB58F7E8EBD8381813009F057C0AB
S11306A089B7806289BF81E008958EB588608EBD68
S11306B08381813009F04DC089B7806189BF81E0B1
S11306C008958FB58B618FBD848181110EC08FB564
S11306D08F7E8FBD8FB58F7D8FBD8FB58F7B8FBD87
S11306E08FB58F778FBD81E00895813029F48FB560
S11306F0806A8FBD81E00895813069F58FB5806F80
S11307008FBD81E008958FB583618FBD8481811190
S11307100EC08FB58F7E8FBD8FB58F7D8FBD8FB58A
S11307208F7B8FBD8FB58F778FBD81E0089581302A
S113073029F48FB5806A8FBD81E00895813069F412
S11307408FB5806F8FBD81E0089581E0089581E0C9
S1130750089581E0089580E0089580E00895FC0103
S1130760918191110DC080E090E0A1E0B0E0841B84
S1130770950BA60BB70B892F8DBD41954CBD18C0A9
S1130780913049F41DBC1CBC5BBD59BD57BD4ABD6D
S113079048BD46BD0DC0933029F45BBD59BD4ABD6B
S11307A048BD06C09230E9F55BBD59BD4ABD48BDA0
S11307B0E2818E2F90E088309105A8F5FC01E65D7A
S11307C0FF4F0C9459048EB58E7F8EBD8EB58D7FF0
S11307D08EBD8EB58B7F8EBD81E008958EB5816010
S11307E08EBD81E008958EB582608EBD81E008954E
S11307F08EB583608EBD81E008958EB584608EBD14
S113080081E008958EB585608EBD81E008958EB532
S113081086608EBD81E008958EB587608EBD81E0CF
S1130820089580E0089581E00895FC01818181119B
S113083005C088B7846088BF81E00895813029F4B9
S113084088B7806188BF81E0089580E008951DBC69
S11308501CBC81E00895CF93DF93EC01188281E002
S1130860898395E09A838B831C82CE010E94350391
S11308704EE85BE560E070E0CE010E94AF0381E0EA
S1130880DF91CF9108958AB180688AB98AB188606E
S11308908AB98AB180618AB980B5806880BD80B523
S11308A0826080BD80B5846080BD83E389B910BC5B
S11308B00895EE0FFF1F0590F491E02D0994F8942C
S10508C0FFCF64
S10F08C244697374616E6365203A200081
S9030000FC
